{
  "_format": "hh-sol-artifact-1",
  "contractName": "PresaleWithSwapping",
  "sourceName": "contracts/PresaleWithSwapping.sol",
  "abi": [
    {
      "inputs": [
        {
          "internalType": "contract IUniswapV2Router02",
          "name": "router_",
          "type": "address"
        },
        {
          "internalType": "contract IERC20",
          "name": "tokenForSale_",
          "type": "address"
        },
        {
          "internalType": "contract IERC20",
          "name": "tokenToPay_",
          "type": "address"
        },
        {
          "internalType": "address",
          "name": "safeAddress_",
          "type": "address"
        },
        {
          "internalType": "uint256",
          "name": "saleStart_",
          "type": "uint256"
        },
        {
          "internalType": "uint256",
          "name": "saleEnd_",
          "type": "uint256"
        },
        {
          "internalType": "uint256",
          "name": "amountTokensToSell_",
          "type": "uint256"
        },
        {
          "internalType": "uint256",
          "name": "exchangeRateWholeToken_",
          "type": "uint256"
        },
        {
          "internalType": "uint256",
          "name": "whitelistBonusBIPS_",
          "type": "uint256"
        },
        {
          "internalType": "bool",
          "name": "adjustableExchangeRate_",
          "type": "bool"
        },
        {
          "internalType": "bool",
          "name": "adjustableTiming_",
          "type": "bool"
        }
      ],
      "stateMutability": "nonpayable",
      "type": "constructor"
    },
    {
      "anonymous": false,
      "inputs": [
        {
          "indexed": false,
          "internalType": "uint256",
          "name": "newExchangeRate",
          "type": "uint256"
        }
      ],
      "name": "ExchangeRateSet",
      "type": "event"
    },
    {
      "anonymous": false,
      "inputs": [
        {
          "indexed": true,
          "internalType": "address",
          "name": "previousOwner",
          "type": "address"
        },
        {
          "indexed": true,
          "internalType": "address",
          "name": "newOwner",
          "type": "address"
        }
      ],
      "name": "OwnershipTransferred",
      "type": "event"
    },
    {
      "anonymous": false,
      "inputs": [
        {
          "indexed": true,
          "internalType": "address",
          "name": "buyer",
          "type": "address"
        },
        {
          "indexed": false,
          "internalType": "uint256",
          "name": "amountPurchased",
          "type": "uint256"
        }
      ],
      "name": "TokensPurchased",
      "type": "event"
    },
    {
      "inputs": [
        {
          "internalType": "address[]",
          "name": "users",
          "type": "address[]"
        }
      ],
      "name": "addToWhitelist",
      "outputs": [],
      "stateMutability": "nonpayable",
      "type": "function"
    },
    {
      "inputs": [
        {
          "internalType": "uint256",
          "name": "newEndTime",
          "type": "uint256"
        }
      ],
      "name": "adjustEnd",
      "outputs": [],
      "stateMutability": "nonpayable",
      "type": "function"
    },
    {
      "inputs": [
        {
          "internalType": "uint256",
          "name": "newExchangeRate",
          "type": "uint256"
        }
      ],
      "name": "adjustExchangeRate",
      "outputs": [],
      "stateMutability": "nonpayable",
      "type": "function"
    },
    {
      "inputs": [
        {
          "internalType": "uint256",
          "name": "newStartTime",
          "type": "uint256"
        }
      ],
      "name": "adjustStart",
      "outputs": [],
      "stateMutability": "nonpayable",
      "type": "function"
    },
    {
      "inputs": [],
      "name": "adjustableExchangeRate",
      "outputs": [
        {
          "internalType": "bool",
          "name": "",
          "type": "bool"
        }
      ],
      "stateMutability": "view",
      "type": "function"
    },
    {
      "inputs": [],
      "name": "adjustableTiming",
      "outputs": [
        {
          "internalType": "bool",
          "name": "",
          "type": "bool"
        }
      ],
      "stateMutability": "view",
      "type": "function"
    },
    {
      "inputs": [],
      "name": "amountLeftToSell",
      "outputs": [
        {
          "internalType": "uint256",
          "name": "",
          "type": "uint256"
        }
      ],
      "stateMutability": "view",
      "type": "function"
    },
    {
      "inputs": [],
      "name": "exchangeRateDivisor",
      "outputs": [
        {
          "internalType": "uint256",
          "name": "",
          "type": "uint256"
        }
      ],
      "stateMutability": "view",
      "type": "function"
    },
    {
      "inputs": [],
      "name": "exchangeRateWholeToken",
      "outputs": [
        {
          "internalType": "uint256",
          "name": "",
          "type": "uint256"
        }
      ],
      "stateMutability": "view",
      "type": "function"
    },
    {
      "inputs": [
        {
          "internalType": "uint256",
          "name": "amountToBuy",
          "type": "uint256"
        }
      ],
      "name": "findAmountETHToPay",
      "outputs": [
        {
          "internalType": "uint256",
          "name": "",
          "type": "uint256"
        }
      ],
      "stateMutability": "view",
      "type": "function"
    },
    {
      "inputs": [
        {
          "internalType": "uint256",
          "name": "amountToBuy",
          "type": "uint256"
        }
      ],
      "name": "findAmountToPay",
      "outputs": [
        {
          "internalType": "uint256",
          "name": "",
          "type": "uint256"
        }
      ],
      "stateMutability": "view",
      "type": "function"
    },
    {
      "inputs": [
        {
          "internalType": "address",
          "name": "",
          "type": "address"
        }
      ],
      "name": "hasPurchased",
      "outputs": [
        {
          "internalType": "bool",
          "name": "",
          "type": "bool"
        }
      ],
      "stateMutability": "view",
      "type": "function"
    },
    {
      "inputs": [],
      "name": "numberOfPurchasers",
      "outputs": [
        {
          "internalType": "uint256",
          "name": "",
          "type": "uint256"
        }
      ],
      "stateMutability": "view",
      "type": "function"
    },
    {
      "inputs": [],
      "name": "owner",
      "outputs": [
        {
          "internalType": "address",
          "name": "",
          "type": "address"
        }
      ],
      "stateMutability": "view",
      "type": "function"
    },
    {
      "inputs": [
        {
          "internalType": "uint256",
          "name": "amountToBuy",
          "type": "uint256"
        }
      ],
      "name": "purchaseTokens",
      "outputs": [],
      "stateMutability": "nonpayable",
      "type": "function"
    },
    {
      "inputs": [
        {
          "internalType": "uint256",
          "name": "amountToBuy",
          "type": "uint256"
        }
      ],
      "name": "purchaseTokensWithETH",
      "outputs": [],
      "stateMutability": "payable",
      "type": "function"
    },
    {
      "inputs": [
        {
          "internalType": "uint256",
          "name": "",
          "type": "uint256"
        }
      ],
      "name": "purchasers",
      "outputs": [
        {
          "internalType": "address",
          "name": "",
          "type": "address"
        }
      ],
      "stateMutability": "view",
      "type": "function"
    },
    {
      "inputs": [
        {
          "internalType": "address[]",
          "name": "users",
          "type": "address[]"
        }
      ],
      "name": "removeFromWhitelist",
      "outputs": [],
      "stateMutability": "nonpayable",
      "type": "function"
    },
    {
      "inputs": [],
      "name": "renounceOwnership",
      "outputs": [],
      "stateMutability": "nonpayable",
      "type": "function"
    },
    {
      "inputs": [],
      "name": "router",
      "outputs": [
        {
          "internalType": "contract IUniswapV2Router02",
          "name": "",
          "type": "address"
        }
      ],
      "stateMutability": "view",
      "type": "function"
    },
    {
      "inputs": [],
      "name": "safeAddress",
      "outputs": [
        {
          "internalType": "address",
          "name": "",
          "type": "address"
        }
      ],
      "stateMutability": "view",
      "type": "function"
    },
    {
      "inputs": [],
      "name": "saleEnd",
      "outputs": [
        {
          "internalType": "uint256",
          "name": "",
          "type": "uint256"
        }
      ],
      "stateMutability": "view",
      "type": "function"
    },
    {
      "inputs": [],
      "name": "saleEnded",
      "outputs": [
        {
          "internalType": "bool",
          "name": "",
          "type": "bool"
        }
      ],
      "stateMutability": "view",
      "type": "function"
    },
    {
      "inputs": [],
      "name": "saleOngoing",
      "outputs": [
        {
          "internalType": "bool",
          "name": "",
          "type": "bool"
        }
      ],
      "stateMutability": "view",
      "type": "function"
    },
    {
      "inputs": [],
      "name": "saleStart",
      "outputs": [
        {
          "internalType": "uint256",
          "name": "",
          "type": "uint256"
        }
      ],
      "stateMutability": "view",
      "type": "function"
    },
    {
      "inputs": [],
      "name": "saleStarted",
      "outputs": [
        {
          "internalType": "bool",
          "name": "",
          "type": "bool"
        }
      ],
      "stateMutability": "view",
      "type": "function"
    },
    {
      "inputs": [
        {
          "internalType": "uint256",
          "name": "value",
          "type": "uint256"
        }
      ],
      "name": "setwhitelistBonusBIPS",
      "outputs": [],
      "stateMutability": "nonpayable",
      "type": "function"
    },
    {
      "inputs": [],
      "name": "tokenForSale",
      "outputs": [
        {
          "internalType": "contract IERC20",
          "name": "",
          "type": "address"
        }
      ],
      "stateMutability": "view",
      "type": "function"
    },
    {
      "inputs": [],
      "name": "tokenToPay",
      "outputs": [
        {
          "internalType": "contract IERC20",
          "name": "",
          "type": "address"
        }
      ],
      "stateMutability": "view",
      "type": "function"
    },
    {
      "inputs": [
        {
          "internalType": "address",
          "name": "",
          "type": "address"
        }
      ],
      "name": "tokensPurchased",
      "outputs": [
        {
          "internalType": "uint256",
          "name": "",
          "type": "uint256"
        }
      ],
      "stateMutability": "view",
      "type": "function"
    },
    {
      "inputs": [],
      "name": "totalProceeds",
      "outputs": [
        {
          "internalType": "uint256",
          "name": "",
          "type": "uint256"
        }
      ],
      "stateMutability": "view",
      "type": "function"
    },
    {
      "inputs": [],
      "name": "totalTokensSold",
      "outputs": [
        {
          "internalType": "uint256",
          "name": "",
          "type": "uint256"
        }
      ],
      "stateMutability": "view",
      "type": "function"
    },
    {
      "inputs": [
        {
          "internalType": "address",
          "name": "newOwner",
          "type": "address"
        }
      ],
      "name": "transferOwnership",
      "outputs": [],
      "stateMutability": "nonpayable",
      "type": "function"
    },
    {
      "inputs": [
        {
          "internalType": "address",
          "name": "",
          "type": "address"
        }
      ],
      "name": "whitelist",
      "outputs": [
        {
          "internalType": "bool",
          "name": "",
          "type": "bool"
        }
      ],
      "stateMutability": "view",
      "type": "function"
    },
    {
      "inputs": [],
      "name": "whitelistBonusBIPS",
      "outputs": [
        {
          "internalType": "uint256",
          "name": "",
          "type": "uint256"
        }
      ],
      "stateMutability": "view",
      "type": "function"
    },
    {
      "inputs": [
        {
          "internalType": "address",
          "name": "dest",
          "type": "address"
        }
      ],
      "name": "withdrawSaleProceeds",
      "outputs": [],
      "stateMutability": "nonpayable",
      "type": "function"
    },
    {
      "inputs": [
        {
          "internalType": "address",
          "name": "dest",
          "type": "address"
        }
      ],
      "name": "withdrawUnsoldTokens",
      "outputs": [],
      "stateMutability": "nonpayable",
      "type": "function"
    }
  ],
  "bytecode": "0x60a06040523480156200001157600080fd5b5060405162004117380380620041178339818101604052810190620000379190620004dd565b620000576200004b6200038760201b60201c565b6200038f60201b60201c565b6113888311156200009f576040517f08c379a00000000000000000000000000000000000000000000000000000000081526004016200009690620006a2565b60405180910390fd5b428711620000e4576040517f08c379a0000000000000000000000000000000000000000000000000000000008152600401620000db90620006e6565b60405180910390fd5b85871062000129576040517f08c379a00000000000000000000000000000000000000000000000000000000081526004016200012090620006c4565b60405180910390fd5b8a600160006101000a81548173ffffffffffffffffffffffffffffffffffffffff021916908373ffffffffffffffffffffffffffffffffffffffff16021790555089600260006101000a81548173ffffffffffffffffffffffffffffffffffffffff021916908373ffffffffffffffffffffffffffffffffffffffff16021790555088600360006101000a81548173ffffffffffffffffffffffffffffffffffffffff021916908373ffffffffffffffffffffffffffffffffffffffff16021790555087600460006101000a81548173ffffffffffffffffffffffffffffffffffffffff021916908373ffffffffffffffffffffffffffffffffffffffff160217905550866006819055508560078190555084600881905550836005819055507f972aba470577c14606bbf4bbdec1fed4925f242fcef40b4a8d242983365d0291846040516200027a919062000708565b60405180910390a182600b8190555081600c60006101000a81548160ff02191690831515021790555080600c60016101000a81548160ff021916908315150217905550600260009054906101000a900473ffffffffffffffffffffffffffffffffffffffff1673ffffffffffffffffffffffffffffffffffffffff1663313ce5676040518163ffffffff1660e01b815260040160206040518083038186803b1580156200032657600080fd5b505afa1580156200033b573d6000803e3d6000fd5b505050506040513d601f19601f82011682018060405250810190620003619190620005ea565b600a6200036f919062000791565b60808181525050505050505050505050505062000aa5565b600033905090565b60008060009054906101000a900473ffffffffffffffffffffffffffffffffffffffff169050816000806101000a81548173ffffffffffffffffffffffffffffffffffffffff021916908373ffffffffffffffffffffffffffffffffffffffff1602179055508173ffffffffffffffffffffffffffffffffffffffff168173ffffffffffffffffffffffffffffffffffffffff167f8be0079c531659141344cd1fd0a4f28419497f9722a3daafe3b4186f6b6457e060405160405180910390a35050565b600081519050620004648162000a09565b92915050565b6000815190506200047b8162000a23565b92915050565b600081519050620004928162000a3d565b92915050565b600081519050620004a98162000a57565b92915050565b600081519050620004c08162000a71565b92915050565b600081519050620004d78162000a8b565b92915050565b60008060008060008060008060008060006101608c8e0312156200050657620005056200097c565b5b6000620005168e828f0162000498565b9b50506020620005298e828f0162000481565b9a505060406200053c8e828f0162000481565b99505060606200054f8e828f0162000453565b9850506080620005628e828f01620004af565b97505060a0620005758e828f01620004af565b96505060c0620005888e828f01620004af565b95505060e06200059b8e828f01620004af565b945050610100620005af8e828f01620004af565b935050610120620005c38e828f016200046a565b925050610140620005d78e828f016200046a565b9150509295989b509295989b9093969950565b6000602082840312156200060357620006026200097c565b5b60006200061384828501620004c6565b91505092915050565b60006200062b600e8362000725565b915062000638826200098e565b602082019050919050565b600062000652601e8362000725565b91506200065f82620009b7565b602082019050919050565b60006200067960198362000725565b91506200068682620009e0565b602082019050919050565b6200069c8162000936565b82525050565b60006020820190508181036000830152620006bd816200061c565b9050919050565b60006020820190508181036000830152620006df8162000643565b9050919050565b6000602082019050818103600083015262000701816200066a565b9050919050565b60006020820190506200071f600083018462000691565b92915050565b600082825260208201905092915050565b6000808291508390505b6001851115620007885780860481111562000760576200075f6200094d565b5b6001851615620007705780820291505b8081029050620007808562000981565b945062000740565b94509492505050565b60006200079e8262000936565b9150620007ab8362000940565b9250620007da7fffffffffffffffffffffffffffffffffffffffffffffffffffffffffffffffff8484620007e2565b905092915050565b600082620007f45760019050620008c7565b81620008045760009050620008c7565b81600181146200081d576002811462000828576200085e565b6001915050620008c7565b60ff8411156200083d576200083c6200094d565b5b8360020a9150848211156200085757620008566200094d565b5b50620008c7565b5060208310610133831016604e8410600b8410161715620008985782820a9050838111156200089257620008916200094d565b5b620008c7565b620008a7848484600162000736565b92509050818404811115620008c157620008c06200094d565b5b81810290505b9392505050565b6000620008db8262000916565b9050919050565b60008115159050919050565b6000620008fb82620008ce565b9050919050565b60006200090f82620008ce565b9050919050565b600073ffffffffffffffffffffffffffffffffffffffff82169050919050565b6000819050919050565b600060ff82169050919050565b7f4e487b7100000000000000000000000000000000000000000000000000000000600052601160045260246000fd5b600080fd5b60008160011c9050919050565b7f626f6e757320746f6f2068696768000000000000000000000000000000000000600082015250565b7f73616c65206d757374207374617274206265666f726520697420656e64730000600082015250565b7f73616c65206d75737420737461727420696e2066757475726500000000000000600082015250565b62000a1481620008ce565b811462000a2057600080fd5b50565b62000a2e81620008e2565b811462000a3a57600080fd5b50565b62000a4881620008ee565b811462000a5457600080fd5b50565b62000a628162000902565b811462000a6e57600080fd5b50565b62000a7c8162000936565b811462000a8857600080fd5b50565b62000a968162000940565b811462000aa257600080fd5b50565b60805161364f62000ac8600039600081816108900152610a45015261364f6000f3fe60806040526004361061021a5760003560e01c806372f57f1f116101235780639b19251a116100ab578063ca2bf9171161006f578063ca2bf917146107b8578063daddf1a2146107e3578063f1db23dc1461080c578063f2fde38b14610837578063f887ea40146108605761021a565b80639b19251a146106cf5780639b8906ae1461070c578063ab0bcc4114610737578063b10ddde814610762578063c10b93581461078d5761021a565b806386b05d94116100f257806386b05d94146105d65780638da5cb5b146105ff5780638f31e7391461062a57806390118fb414610667578063914c7d5c146106a45761021a565b806372f57f1f146105305780637b97008d146105595780637f6497831461058257806385328a13146105ab5761021a565b8063548db174116101a65780635c474f9e116101755780635c474f9e1461047e578063618cb640146104a957806363b20117146104c55780636bdd3c28146104f0578063715018a6146105195761021a565b8063548db174146103d65780635578110c146103ff578063580c2ae91461042a5780635b167225146104555761021a565b80631f830f4d116101ed5780631f830f4d146102ed578063266e7345146103185780632ad92740146103435780633970f6981461038057806339d08c2a146103ab5761021a565b80630e3076a11461021f57806312923b651461025c57806318e588cc1461029957806319e86ffd146102c2575b600080fd5b34801561022b57600080fd5b50610246600480360381019061024191906127e1565b61088b565b6040516102539190612e4d565b60405180910390f35b34801561026857600080fd5b50610283600480360381019061027e91906127e1565b6108d2565b6040516102909190612b76565b60405180910390f35b3480156102a557600080fd5b506102c060048036038101906102bb91906127e1565b610911565b005b3480156102ce57600080fd5b506102d7610a2a565b6040516102e49190612c1a565b60405180910390f35b3480156102f957600080fd5b50610302610a3d565b60405161030f9190612e4d565b60405180910390f35b34801561032457600080fd5b5061032d610a43565b60405161033a9190612e4d565b60405180910390f35b34801561034f57600080fd5b5061036a600480360381019061036591906126c4565b610a67565b6040516103779190612e4d565b60405180910390f35b34801561038c57600080fd5b50610395610a7f565b6040516103a29190612c35565b60405180910390f35b3480156103b757600080fd5b506103c0610aa5565b6040516103cd9190612c1a565b60405180910390f35b3480156103e257600080fd5b506103fd60048036038101906103f8919061271e565b610ac5565b005b34801561040b57600080fd5b50610414610be6565b6040516104219190612b76565b60405180910390f35b34801561043657600080fd5b5061043f610c0c565b60405161044c9190612e4d565b60405180910390f35b34801561046157600080fd5b5061047c600480360381019061047791906126c4565b610c19565b005b34801561048a57600080fd5b50610493610d95565b6040516104a09190612c1a565b60405180910390f35b6104c360048036038101906104be91906127e1565b610da2565b005b3480156104d157600080fd5b506104da610ecd565b6040516104e79190612e4d565b60405180910390f35b3480156104fc57600080fd5b50610517600480360381019061051291906127e1565b610ed3565b005b34801561052557600080fd5b5061052e611076565b005b34801561053c57600080fd5b50610557600480360381019061055291906126c4565b6110fe565b005b34801561056557600080fd5b50610580600480360381019061057b91906127e1565b61127a565b005b34801561058e57600080fd5b506105a960048036038101906105a4919061271e565b61139a565b005b3480156105b757600080fd5b506105c06114bb565b6040516105cd9190612e4d565b60405180910390f35b3480156105e257600080fd5b506105fd60048036038101906105f891906127e1565b6114c1565b005b34801561060b57600080fd5b506106146115cd565b6040516106219190612b76565b60405180910390f35b34801561063657600080fd5b50610651600480360381019061064c91906127e1565b6115f6565b60405161065e9190612e4d565b60405180910390f35b34801561067357600080fd5b5061068e600480360381019061068991906126c4565b61186b565b60405161069b9190612c1a565b60405180910390f35b3480156106b057600080fd5b506106b961188b565b6040516106c69190612c1a565b60405180910390f35b3480156106db57600080fd5b506106f660048036038101906106f191906126c4565b61189e565b6040516107039190612c1a565b60405180910390f35b34801561071857600080fd5b506107216118be565b60405161072e9190612c1a565b60405180910390f35b34801561074357600080fd5b5061074c6118ca565b6040516107599190612e4d565b60405180910390f35b34801561076e57600080fd5b506107776118d0565b6040516107849190612c35565b60405180910390f35b34801561079957600080fd5b506107a26118f6565b6040516107af9190612e4d565b60405180910390f35b3480156107c457600080fd5b506107cd6118fc565b6040516107da9190612e4d565b60405180910390f35b3480156107ef57600080fd5b5061080a600480360381019061080591906127e1565b611902565b005b34801561081857600080fd5b506108216119cd565b60405161082e9190612e4d565b60405180910390f35b34801561084357600080fd5b5061085e600480360381019061085991906126c4565b6119d3565b005b34801561086c57600080fd5b50610875611acb565b6040516108829190612c50565b60405180910390f35b6000807f0000000000000000000000000000000000000000000000000000000000000000600554846108bd9190613027565b6108c79190612ff6565b905080915050919050565b601081815481106108e257600080fd5b906000526020600020016000915054906101000a900473ffffffffffffffffffffffffffffffffffffffff1681565b610919611af1565b73ffffffffffffffffffffffffffffffffffffffff166109376115cd565b73ffffffffffffffffffffffffffffffffffffffff161461098d576040517f08c379a000000000000000000000000000000000000000000000000000000000815260040161098490612d8d565b60405180910390fd5b600c60019054906101000a900460ff166109dc576040517f08c379a00000000000000000000000000000000000000000000000000000000081526004016109d390612cad565b60405180910390fd5b8060065410610a20576040517f08c379a0000000000000000000000000000000000000000000000000000000008152600401610a1790612e0d565b60405180910390fd5b8060078190555050565b600c60019054906101000a900460ff1681565b60055481565b7f000000000000000000000000000000000000000000000000000000000000000081565b600d6020528060005260406000206000915090505481565b600260009054906101000a900473ffffffffffffffffffffffffffffffffffffffff1681565b6000610aaf610d95565b8015610ac05750610abe6118be565b155b905090565b610acd611af1565b73ffffffffffffffffffffffffffffffffffffffff16610aeb6115cd565b73ffffffffffffffffffffffffffffffffffffffff1614610b41576040517f08c379a0000000000000000000000000000000000000000000000000000000008152600401610b3890612d8d565b60405180910390fd5b60005b82829050811015610be1576000600e6000858585818110610b6857610b67613250565b5b9050602002016020810190610b7d91906126c4565b73ffffffffffffffffffffffffffffffffffffffff1673ffffffffffffffffffffffffffffffffffffffff16815260200190815260200160002060006101000a81548160ff0219169083151502179055508080610bd9906131a9565b915050610b44565b505050565b600460009054906101000a900473ffffffffffffffffffffffffffffffffffffffff1681565b6000601080549050905090565b610c21611af1565b73ffffffffffffffffffffffffffffffffffffffff16610c3f6115cd565b73ffffffffffffffffffffffffffffffffffffffff1614610c95576040517f08c379a0000000000000000000000000000000000000000000000000000000008152600401610c8c90612d8d565b60405180910390fd5b6000600360009054906101000a900473ffffffffffffffffffffffffffffffffffffffff1673ffffffffffffffffffffffffffffffffffffffff166370a08231306040518263ffffffff1660e01b8152600401610cf29190612b76565b60206040518083038186803b158015610d0a57600080fd5b505afa158015610d1e573d6000803e3d6000fd5b505050506040513d601f19601f82011682018060405250810190610d42919061280e565b9050610d918282600360009054906101000a900473ffffffffffffffffffffffffffffffffffffffff1673ffffffffffffffffffffffffffffffffffffffff16611af99092919063ffffffff16565b5050565b6000600654421015905090565b3381610dac610aa5565b610deb576040517f08c379a0000000000000000000000000000000000000000000000000000000008152600401610de290612ced565b60405180910390fd5b6000819050600e60008473ffffffffffffffffffffffffffffffffffffffff1673ffffffffffffffffffffffffffffffffffffffff16815260200190815260200160002060009054906101000a900460ff1615610e6d57612710600b54612710610e559190612fa0565b83610e609190613027565b610e6a9190612ff6565b90505b600854811115610eb2576040517f08c379a0000000000000000000000000000000000000000000000000000000008152600401610ea990612d2d565b60405180910390fd5b610ebd333486611b7f565b610ec73385611e9d565b50505050565b60095481565b610edb611af1565b73ffffffffffffffffffffffffffffffffffffffff16610ef96115cd565b73ffffffffffffffffffffffffffffffffffffffff1614610f4f576040517f08c379a0000000000000000000000000000000000000000000000000000000008152600401610f4690612d8d565b60405180910390fd5b600c60019054906101000a900460ff16610f9e576040517f08c379a0000000000000000000000000000000000000000000000000000000008152600401610f9590612cad565b60405180910390fd5b610fa6610aa5565b15610fe6576040517f08c379a0000000000000000000000000000000000000000000000000000000008152600401610fdd90612c8d565b60405180910390fd5b600754811061102a576040517f08c379a000000000000000000000000000000000000000000000000000000000815260040161102190612e0d565b60405180910390fd5b42811161106c576040517f08c379a000000000000000000000000000000000000000000000000000000000815260040161106390612e2d565b60405180910390fd5b8060068190555050565b61107e611af1565b73ffffffffffffffffffffffffffffffffffffffff1661109c6115cd565b73ffffffffffffffffffffffffffffffffffffffff16146110f2576040517f08c379a00000000000000000000000000000000000000000000000000000000081526004016110e990612d8d565b60405180910390fd5b6110fc60006121ad565b565b611106611af1565b73ffffffffffffffffffffffffffffffffffffffff166111246115cd565b73ffffffffffffffffffffffffffffffffffffffff161461117a576040517f08c379a000000000000000000000000000000000000000000000000000000000815260040161117190612d8d565b60405180910390fd5b6000600260009054906101000a900473ffffffffffffffffffffffffffffffffffffffff1673ffffffffffffffffffffffffffffffffffffffff166370a08231306040518263ffffffff1660e01b81526004016111d79190612b76565b60206040518083038186803b1580156111ef57600080fd5b505afa158015611203573d6000803e3d6000fd5b505050506040513d601f19601f82011682018060405250810190611227919061280e565b90506112768282600260009054906101000a900473ffffffffffffffffffffffffffffffffffffffff1673ffffffffffffffffffffffffffffffffffffffff16611af99092919063ffffffff16565b5050565b3381611284610aa5565b6112c3576040517f08c379a00000000000000000000000000000000000000000000000000000000081526004016112ba90612ced565b60405180910390fd5b6000819050600e60008473ffffffffffffffffffffffffffffffffffffffff1673ffffffffffffffffffffffffffffffffffffffff16815260200190815260200160002060009054906101000a900460ff161561134557612710600b5461271061132d9190612fa0565b836113389190613027565b6113429190612ff6565b90505b60085481111561138a576040517f08c379a000000000000000000000000000000000000000000000000000000000815260040161138190612d2d565b60405180910390fd5b6113943385611e9d565b50505050565b6113a2611af1565b73ffffffffffffffffffffffffffffffffffffffff166113c06115cd565b73ffffffffffffffffffffffffffffffffffffffff1614611416576040517f08c379a000000000000000000000000000000000000000000000000000000000815260040161140d90612d8d565b60405180910390fd5b60005b828290508110156114b6576001600e600085858581811061143d5761143c613250565b5b905060200201602081019061145291906126c4565b73ffffffffffffffffffffffffffffffffffffffff1673ffffffffffffffffffffffffffffffffffffffff16815260200190815260200160002060006101000a81548160ff02191690831515021790555080806114ae906131a9565b915050611419565b505050565b60085481565b6114c9611af1565b73ffffffffffffffffffffffffffffffffffffffff166114e76115cd565b73ffffffffffffffffffffffffffffffffffffffff161461153d576040517f08c379a000000000000000000000000000000000000000000000000000000000815260040161153490612d8d565b60405180910390fd5b600c60009054906101000a900460ff1661158c576040517f08c379a000000000000000000000000000000000000000000000000000000000815260040161158390612d0d565b60405180910390fd5b806005819055507f972aba470577c14606bbf4bbdec1fed4925f242fcef40b4a8d242983365d0291816040516115c29190612e4d565b60405180910390a150565b60008060009054906101000a900473ffffffffffffffffffffffffffffffffffffffff16905090565b6000806116028361088b565b90506060600160009054906101000a900473ffffffffffffffffffffffffffffffffffffffff1673ffffffffffffffffffffffffffffffffffffffff1663ad5c46486040518163ffffffff1660e01b815260040160206040518083038186803b15801561166e57600080fd5b505afa158015611682573d6000803e3d6000fd5b505050506040513d601f19601f820116820180604052508101906116a691906126f1565b816000815181106116ba576116b9613250565b5b602002602001019073ffffffffffffffffffffffffffffffffffffffff16908173ffffffffffffffffffffffffffffffffffffffff1681525050600360009054906101000a900473ffffffffffffffffffffffffffffffffffffffff168160018151811061172b5761172a613250565b5b602002602001019073ffffffffffffffffffffffffffffffffffffffff16908173ffffffffffffffffffffffffffffffffffffffff16815250506000600160009054906101000a900473ffffffffffffffffffffffffffffffffffffffff1673ffffffffffffffffffffffffffffffffffffffff16631f00ca7484846040518363ffffffff1660e01b81526004016117c4929190612e68565b60006040518083038186803b1580156117dc57600080fd5b505afa1580156117f0573d6000803e3d6000fd5b505050506040513d6000823e3d601f19601f82011682018060405250810190611819919061276b565b90506000816001835161182c9190613081565b8151811061183d5761183c613250565b5b6020026020010151905060646066826118569190613027565b6118609190612ff6565b945050505050919050565b600f6020528060005260406000206000915054906101000a900460ff1681565b600c60009054906101000a900460ff1681565b600e6020528060005260406000206000915054906101000a900460ff1681565b60006007544211905090565b60065481565b600360009054906101000a900473ffffffffffffffffffffffffffffffffffffffff1681565b60075481565b600b5481565b61190a611af1565b73ffffffffffffffffffffffffffffffffffffffff166119286115cd565b73ffffffffffffffffffffffffffffffffffffffff161461197e576040517f08c379a000000000000000000000000000000000000000000000000000000000815260040161197590612d8d565b60405180910390fd5b6113888111156119c3576040517f08c379a00000000000000000000000000000000000000000000000000000000081526004016119ba90612d6d565b60405180910390fd5b80600b8190555050565b600a5481565b6119db611af1565b73ffffffffffffffffffffffffffffffffffffffff166119f96115cd565b73ffffffffffffffffffffffffffffffffffffffff1614611a4f576040517f08c379a0000000000000000000000000000000000000000000000000000000008152600401611a4690612d8d565b60405180910390fd5b600073ffffffffffffffffffffffffffffffffffffffff168173ffffffffffffffffffffffffffffffffffffffff161415611abf576040517f08c379a0000000000000000000000000000000000000000000000000000000008152600401611ab690612ccd565b60405180910390fd5b611ac8816121ad565b50565b600160009054906101000a900473ffffffffffffffffffffffffffffffffffffffff1681565b600033905090565b611b7a8363a9059cbb60e01b8484604051602401611b18929190612bf1565b604051602081830303815290604052907bffffffffffffffffffffffffffffffffffffffffffffffffffffffff19166020820180517bffffffffffffffffffffffffffffffffffffffffffffffffffffffff8381831617835250505050612271565b505050565b6000611b8a8261088b565b905080600360009054906101000a900473ffffffffffffffffffffffffffffffffffffffff1673ffffffffffffffffffffffffffffffffffffffff1663dd62ed3e86306040518363ffffffff1660e01b8152600401611bea929190612b91565b60206040518083038186803b158015611c0257600080fd5b505afa158015611c16573d6000803e3d6000fd5b505050506040513d601f19601f82011682018060405250810190611c3a919061280e565b1015611c7b576040517f08c379a0000000000000000000000000000000000000000000000000000000008152600401611c7290612dcd565b60405180910390fd5b6060600160009054906101000a900473ffffffffffffffffffffffffffffffffffffffff1673ffffffffffffffffffffffffffffffffffffffff1663ad5c46486040518163ffffffff1660e01b815260040160206040518083038186803b158015611ce557600080fd5b505afa158015611cf9573d6000803e3d6000fd5b505050506040513d601f19601f82011682018060405250810190611d1d91906126f1565b81600081518110611d3157611d30613250565b5b602002602001019073ffffffffffffffffffffffffffffffffffffffff16908173ffffffffffffffffffffffffffffffffffffffff1681525050600360009054906101000a900473ffffffffffffffffffffffffffffffffffffffff1681600181518110611da257611da1613250565b5b602002602001019073ffffffffffffffffffffffffffffffffffffffff16908173ffffffffffffffffffffffffffffffffffffffff1681525050600160009054906101000a900473ffffffffffffffffffffffffffffffffffffffff1673ffffffffffffffffffffffffffffffffffffffff1663fb3bdb4185848489426040518663ffffffff1660e01b8152600401611e3e9493929190612e98565b6000604051808303818588803b158015611e5757600080fd5b505af1158015611e6b573d6000803e3d6000fd5b50505050506040513d6000823e3d601f19601f82011682018060405250810190611e95919061276b565b505050505050565b6000611ea88261088b565b905080600a6000828254611ebc9190612fa0565b925050819055506000829050600e60008573ffffffffffffffffffffffffffffffffffffffff1673ffffffffffffffffffffffffffffffffffffffff16815260200190815260200160002060009054906101000a900460ff1615611f4557612710600b54612710611f2d9190612fa0565b84611f389190613027565b611f429190612ff6565b90505b8060096000828254611f579190612fa0565b9250508190555080600d60008673ffffffffffffffffffffffffffffffffffffffff1673ffffffffffffffffffffffffffffffffffffffff1681526020019081526020016000206000828254611fad9190612fa0565b925050819055508373ffffffffffffffffffffffffffffffffffffffff167f8f28852646c20cc973d3a8218f7eefed58c25c909f78f0265af4818c3d4dc27182604051611ffa9190612e4d565b60405180910390a280600860008282546120149190613081565b92505081905550600f60008573ffffffffffffffffffffffffffffffffffffffff1673ffffffffffffffffffffffffffffffffffffffff16815260200190815260200160002060009054906101000a900460ff161580156120755750600083115b15612136576001600f60008673ffffffffffffffffffffffffffffffffffffffff1673ffffffffffffffffffffffffffffffffffffffff16815260200190815260200160002060006101000a81548160ff0219169083151502179055506010849080600181540180825580915050600190039060005260206000200160009091909190916101000a81548173ffffffffffffffffffffffffffffffffffffffff021916908373ffffffffffffffffffffffffffffffffffffffff1602179055505b6121a784600460009054906101000a900473ffffffffffffffffffffffffffffffffffffffff1684600360009054906101000a900473ffffffffffffffffffffffffffffffffffffffff1673ffffffffffffffffffffffffffffffffffffffff16612338909392919063ffffffff16565b50505050565b60008060009054906101000a900473ffffffffffffffffffffffffffffffffffffffff169050816000806101000a81548173ffffffffffffffffffffffffffffffffffffffff021916908373ffffffffffffffffffffffffffffffffffffffff1602179055508173ffffffffffffffffffffffffffffffffffffffff168173ffffffffffffffffffffffffffffffffffffffff167f8be0079c531659141344cd1fd0a4f28419497f9722a3daafe3b4186f6b6457e060405160405180910390a35050565b60006122d3826040518060400160405280602081526020017f5361666545524332303a206c6f772d6c6576656c2063616c6c206661696c65648152508573ffffffffffffffffffffffffffffffffffffffff166123c19092919063ffffffff16565b905060008151111561233357808060200190518101906122f391906127b4565b612332576040517f08c379a000000000000000000000000000000000000000000000000000000000815260040161232990612ded565b60405180910390fd5b5b505050565b6123bb846323b872dd60e01b85858560405160240161235993929190612bba565b604051602081830303815290604052907bffffffffffffffffffffffffffffffffffffffffffffffffffffffff19166020820180517bffffffffffffffffffffffffffffffffffffffffffffffffffffffff8381831617835250505050612271565b50505050565b60606123d084846000856123d9565b90509392505050565b60608247101561241e576040517f08c379a000000000000000000000000000000000000000000000000000000000815260040161241590612d4d565b60405180910390fd5b612427856124ed565b612466576040517f08c379a000000000000000000000000000000000000000000000000000000000815260040161245d90612dad565b60405180910390fd5b6000808673ffffffffffffffffffffffffffffffffffffffff16858760405161248f9190612b5f565b60006040518083038185875af1925050503d80600081146124cc576040519150601f19603f3d011682016040523d82523d6000602084013e6124d1565b606091505b50915091506124e1828286612500565b92505050949350505050565b600080823b905060008111915050919050565b6060831561251057829050612560565b6000835111156125235782518084602001fd5b816040517f08c379a00000000000000000000000000000000000000000000000000000000081526004016125579190612c6b565b60405180910390fd5b9392505050565b600061257a61257584612f09565b612ee4565b9050808382526020820190508285602086028201111561259d5761259c6132b8565b5b60005b858110156125cd57816125b388826126af565b8452602084019350602083019250506001810190506125a0565b5050509392505050565b6000813590506125e6816135d4565b92915050565b6000815190506125fb816135d4565b92915050565b60008083601f840112612617576126166132b3565b5b8235905067ffffffffffffffff811115612634576126336132ae565b5b6020830191508360208202830111156126505761264f6132b8565b5b9250929050565b600082601f83011261266c5761266b6132b3565b5b815161267c848260208601612567565b91505092915050565b600081519050612694816135eb565b92915050565b6000813590506126a981613602565b92915050565b6000815190506126be81613602565b92915050565b6000602082840312156126da576126d96132c2565b5b60006126e8848285016125d7565b91505092915050565b600060208284031215612707576127066132c2565b5b6000612715848285016125ec565b91505092915050565b60008060208385031215612735576127346132c2565b5b600083013567ffffffffffffffff811115612753576127526132bd565b5b61275f85828601612601565b92509250509250929050565b600060208284031215612781576127806132c2565b5b600082015167ffffffffffffffff81111561279f5761279e6132bd565b5b6127ab84828501612657565b91505092915050565b6000602082840312156127ca576127c96132c2565b5b60006127d884828501612685565b91505092915050565b6000602082840312156127f7576127f66132c2565b5b60006128058482850161269a565b91505092915050565b600060208284031215612824576128236132c2565b5b6000612832848285016126af565b91505092915050565b60006128478383612853565b60208301905092915050565b61285c816130b5565b82525050565b61286b816130b5565b82525050565b600061287c82612f45565b6128868185612f73565b935061289183612f35565b8060005b838110156128c25781516128a9888261283b565b97506128b483612f66565b925050600181019050612895565b5085935050505092915050565b6128d8816130c7565b82525050565b60006128e982612f50565b6128f38185612f84565b9350612903818560208601613145565b80840191505092915050565b612918816130fd565b82525050565b61292781613121565b82525050565b600061293882612f5b565b6129428185612f8f565b9350612952818560208601613145565b61295b816132c7565b840191505092915050565b6000612973602683612f8f565b915061297e826132d8565b604082019050919050565b6000612996601883612f8f565b91506129a182613327565b602082019050919050565b60006129b9602683612f8f565b91506129c482613350565b604082019050919050565b60006129dc601083612f8f565b91506129e78261339f565b602082019050919050565b60006129ff601f83612f8f565b9150612a0a826133c8565b602082019050919050565b6000612a22602583612f8f565b9150612a2d826133f1565b604082019050919050565b6000612a45602683612f8f565b9150612a5082613440565b604082019050919050565b6000612a68600e83612f8f565b9150612a738261348f565b602082019050919050565b6000612a8b602083612f8f565b9150612a96826134b8565b602082019050919050565b6000612aae601d83612f8f565b9150612ab9826134e1565b602082019050919050565b6000612ad1601f83612f8f565b9150612adc8261350a565b602082019050919050565b6000612af4602a83612f8f565b9150612aff82613533565b604082019050919050565b6000612b17601e83612f8f565b9150612b2282613582565b602082019050919050565b6000612b3a601983612f8f565b9150612b45826135ab565b602082019050919050565b612b59816130f3565b82525050565b6000612b6b82846128de565b915081905092915050565b6000602082019050612b8b6000830184612862565b92915050565b6000604082019050612ba66000830185612862565b612bb36020830184612862565b9392505050565b6000606082019050612bcf6000830186612862565b612bdc6020830185612862565b612be96040830184612b50565b949350505050565b6000604082019050612c066000830185612862565b612c136020830184612b50565b9392505050565b6000602082019050612c2f60008301846128cf565b92915050565b6000602082019050612c4a600083018461290f565b92915050565b6000602082019050612c65600083018461291e565b92915050565b60006020820190508181036000830152612c85818461292d565b905092915050565b60006020820190508181036000830152612ca681612966565b9050919050565b60006020820190508181036000830152612cc681612989565b9050919050565b60006020820190508181036000830152612ce6816129ac565b9050919050565b60006020820190508181036000830152612d06816129cf565b9050919050565b60006020820190508181036000830152612d26816129f2565b9050919050565b60006020820190508181036000830152612d4681612a15565b9050919050565b60006020820190508181036000830152612d6681612a38565b9050919050565b60006020820190508181036000830152612d8681612a5b565b9050919050565b60006020820190508181036000830152612da681612a7e565b9050919050565b60006020820190508181036000830152612dc681612aa1565b9050919050565b60006020820190508181036000830152612de681612ac4565b9050919050565b60006020820190508181036000830152612e0681612ae7565b9050919050565b60006020820190508181036000830152612e2681612b0a565b9050919050565b60006020820190508181036000830152612e4681612b2d565b9050919050565b6000602082019050612e626000830184612b50565b92915050565b6000604082019050612e7d6000830185612b50565b8181036020830152612e8f8184612871565b90509392505050565b6000608082019050612ead6000830187612b50565b8181036020830152612ebf8186612871565b9050612ece6040830185612862565b612edb6060830184612b50565b95945050505050565b6000612eee612eff565b9050612efa8282613178565b919050565b6000604051905090565b600067ffffffffffffffff821115612f2457612f2361327f565b5b602082029050602081019050919050565b6000819050602082019050919050565b600081519050919050565b600081519050919050565b600081519050919050565b6000602082019050919050565b600082825260208201905092915050565b600081905092915050565b600082825260208201905092915050565b6000612fab826130f3565b9150612fb6836130f3565b9250827fffffffffffffffffffffffffffffffffffffffffffffffffffffffffffffffff03821115612feb57612fea6131f2565b5b828201905092915050565b6000613001826130f3565b915061300c836130f3565b92508261301c5761301b613221565b5b828204905092915050565b6000613032826130f3565b915061303d836130f3565b9250817fffffffffffffffffffffffffffffffffffffffffffffffffffffffffffffffff0483118215151615613076576130756131f2565b5b828202905092915050565b600061308c826130f3565b9150613097836130f3565b9250828210156130aa576130a96131f2565b5b828203905092915050565b60006130c0826130d3565b9050919050565b60008115159050919050565b600073ffffffffffffffffffffffffffffffffffffffff82169050919050565b6000819050919050565b60006131088261310f565b9050919050565b600061311a826130d3565b9050919050565b600061312c82613133565b9050919050565b600061313e826130d3565b9050919050565b60005b83811015613163578082015181840152602081019050613148565b83811115613172576000848401525b50505050565b613181826132c7565b810181811067ffffffffffffffff821117156131a05761319f61327f565b5b80604052505050565b60006131b4826130f3565b91507fffffffffffffffffffffffffffffffffffffffffffffffffffffffffffffffff8214156131e7576131e66131f2565b5b600182019050919050565b7f4e487b7100000000000000000000000000000000000000000000000000000000600052601160045260246000fd5b7f4e487b7100000000000000000000000000000000000000000000000000000000600052601260045260246000fd5b7f4e487b7100000000000000000000000000000000000000000000000000000000600052603260045260246000fd5b7f4e487b7100000000000000000000000000000000000000000000000000000000600052604160045260246000fd5b600080fd5b600080fd5b600080fd5b600080fd5b600080fd5b6000601f19601f8301169050919050565b7f63616e6e6f742061646a757374207374617274207768696c652073616c65206f60008201527f6e676f696e670000000000000000000000000000000000000000000000000000602082015250565b7f74696d696e67206973206e6f742061646a75737461626c650000000000000000600082015250565b7f4f776e61626c653a206e6577206f776e657220697320746865207a65726f206160008201527f6464726573730000000000000000000000000000000000000000000000000000602082015250565b7f73616c65206e6f74206f6e676f696e6700000000000000000000000000000000600082015250565b7f65786368616e67652072617465206973206e6f742061646a75737461626c6500600082015250565b7f616d6f756e74546f53656e64206578636565647320616d6f756e744c6566745460008201527f6f53656c6c000000000000000000000000000000000000000000000000000000602082015250565b7f416464726573733a20696e73756666696369656e742062616c616e636520666f60008201527f722063616c6c0000000000000000000000000000000000000000000000000000602082015250565b7f626f6e757320746f6f2068696768000000000000000000000000000000000000600082015250565b7f4f776e61626c653a2063616c6c6572206973206e6f7420746865206f776e6572600082015250565b7f416464726573733a2063616c6c20746f206e6f6e2d636f6e7472616374000000600082015250565b7f6d75737420617070726f76652074686520636f6e747261637420666972737400600082015250565b7f5361666545524332303a204552433230206f7065726174696f6e20646964206e60008201527f6f74207375636365656400000000000000000000000000000000000000000000602082015250565b7f73616c65206d757374207374617274206265666f726520697420656e64730000600082015250565b7f73616c65206d75737420737461727420696e2066757475726500000000000000600082015250565b6135dd816130b5565b81146135e857600080fd5b50565b6135f4816130c7565b81146135ff57600080fd5b50565b61360b816130f3565b811461361657600080fd5b5056fea2646970667358221220888af89df5ed0b7380cca36c04e96529d896ac2e1764063ec95ec420a92dbb6464736f6c63430008060033",
  "linkReferences": {},
  "deployedLinkReferences": {}
}